{
  "contractName": "Lottery",
  "abi": [
    {
      "constant": true,
      "inputs": [],
      "name": "manager",
      "outputs": [
        {
          "name": "",
          "type": "address"
        }
      ],
      "payable": false,
      "stateMutability": "view",
      "type": "function"
    },
    {
      "constant": true,
      "inputs": [
        {
          "name": "",
          "type": "address"
        },
        {
          "name": "",
          "type": "uint256"
        }
      ],
      "name": "activeInLottery",
      "outputs": [
        {
          "name": "",
          "type": "bool"
        }
      ],
      "payable": false,
      "stateMutability": "view",
      "type": "function"
    },
    {
      "constant": true,
      "inputs": [],
      "name": "currentRound",
      "outputs": [
        {
          "name": "",
          "type": "uint256"
        }
      ],
      "payable": false,
      "stateMutability": "view",
      "type": "function"
    },
    {
      "constant": true,
      "inputs": [
        {
          "name": "",
          "type": "uint256"
        }
      ],
      "name": "players",
      "outputs": [
        {
          "name": "",
          "type": "address"
        }
      ],
      "payable": false,
      "stateMutability": "view",
      "type": "function"
    },
    {
      "constant": true,
      "inputs": [],
      "name": "lastWinner",
      "outputs": [
        {
          "name": "",
          "type": "address"
        }
      ],
      "payable": false,
      "stateMutability": "view",
      "type": "function"
    },
    {
      "inputs": [],
      "payable": false,
      "stateMutability": "nonpayable",
      "type": "constructor"
    },
    {
      "constant": false,
      "inputs": [],
      "name": "enter",
      "outputs": [],
      "payable": true,
      "stateMutability": "payable",
      "type": "function"
    },
    {
      "constant": false,
      "inputs": [],
      "name": "pickWinner",
      "outputs": [],
      "payable": false,
      "stateMutability": "nonpayable",
      "type": "function"
    },
    {
      "constant": true,
      "inputs": [],
      "name": "getPlayers",
      "outputs": [
        {
          "name": "",
          "type": "address[]"
        }
      ],
      "payable": false,
      "stateMutability": "view",
      "type": "function"
    }
  ],
  "bytecode": "0x6060604052341561000f57600080fd5b60008054600160a060020a033316600160a060020a031990911617905560016003556106b3806100406000396000f3006060604052361561008b5763ffffffff7c0100000000000000000000000000000000000000000000000000000000600035041663481c6a7581146100905780635d495aea146100cc5780637ec6dec1146100e15780638a19c8bc146101245780638b5b9ccc14610149578063e97dcb62146101af578063f71d96cb146101b7578063fe188184146101cd575b600080fd5b341561009b57600080fd5b6100a36101e0565b60405173ffffffffffffffffffffffffffffffffffffffff909116815260200160405180910390f35b34156100d757600080fd5b6100df6101fc565b005b34156100ec57600080fd5b61011073ffffffffffffffffffffffffffffffffffffffff6004351660243561032a565b604051901515815260200160405180910390f35b341561012f57600080fd5b61013761034a565b60405190815260200160405180910390f35b341561015457600080fd5b61015c610350565b60405160208082528190810183818151815260200191508051906020019060200280838360005b8381101561019b578082015183820152602001610183565b505050509050019250505060405180910390f35b6100df6103c6565b34156101c257600080fd5b6100a36004356104bf565b34156101d857600080fd5b6100a36104f4565b60005473ffffffffffffffffffffffffffffffffffffffff1681565b600080543373ffffffffffffffffffffffffffffffffffffffff90811691161461022557600080fd5b600154610230610510565b81151561023957fe5b06905060018181548110151561024b57fe5b60009182526020909120015473ffffffffffffffffffffffffffffffffffffffff9081169030163180156108fc0290604051600060405180830381858888f19350505050151561029a57600080fd5b60018054829081106102a857fe5b60009182526020822001546002805473ffffffffffffffffffffffffffffffffffffffff191673ffffffffffffffffffffffffffffffffffffffff9092169190911790556040518059106102f95750595b9080825280602002602001820160405250600190805161031d929160200190610580565b5050600380546001019055565b600460209081526000928352604080842090915290825290205460ff1681565b60035481565b610358610601565b60018054806020026020016040519081016040528092919081815260200182805480156103bb57602002820191906000526020600020905b815473ffffffffffffffffffffffffffffffffffffffff168152600190910190602001808311610390575b505050505090505b90565b73ffffffffffffffffffffffffffffffffffffffff33166000908152600460209081526040808320600354845290915290205460ff1615156001141561040b57600080fd5b6000543373ffffffffffffffffffffffffffffffffffffffff9081169116141561043457600080fd5b662386f26fc10000341161044757600080fd5b600180548082016104588382610613565b506000918252602080832091909101805473ffffffffffffffffffffffffffffffffffffffff19163373ffffffffffffffffffffffffffffffffffffffff16908117909155825260048152604080832060035484529091529020805460ff19166001179055565b60018054829081106104cd57fe5b60009182526020909120015473ffffffffffffffffffffffffffffffffffffffff16905081565b60025473ffffffffffffffffffffffffffffffffffffffff1681565b60004442600160405180848152602001838152602001828054801561056b57602002820191906000526020600020905b815473ffffffffffffffffffffffffffffffffffffffff168152600190910190602001808311610540575b50509350505050604051908190039020905090565b8280548282559060005260206000209081019282156105f1579160200282015b828111156105f1578251825473ffffffffffffffffffffffffffffffffffffffff191673ffffffffffffffffffffffffffffffffffffffff91909116178255602092909201916001909101906105a0565b506105fd92915061063c565b5090565b60206040519081016040526000815290565b8154818355818115116106375760008381526020902061063791810190830161066d565b505050565b6103c391905b808211156105fd57805473ffffffffffffffffffffffffffffffffffffffff19168155600101610642565b6103c391905b808211156105fd57600081556001016106735600a165627a7a723058202e75bcba4a4dd36bfc931d68033d68ff5ba957a7b9fa8d02059cc69dbe075e710029",
  "source": "pragma solidity 0.4.17;\n\ncontract Lottery {\n    address public manager;\n    address[] public players;\n    address public lastWinner;\n    uint256 public currentRound;\n    mapping(address => mapping(uint256 => bool)) public activeInLottery;\n\n    function Lottery() public {\n        manager = msg.sender;\n        currentRound = 1;\n    }\n    \n    function enter() public  payable {\n        // user can only enter once per round\n        require(activeInLottery[msg.sender][currentRound] != true);\n\n        // manage can not enter\n        require(msg.sender != manager);\n\n        // .01 ether = 1000000000000000000 wei\n        require(msg.value > .01 ether);\n        players.push(msg.sender);\n        activeInLottery[msg.sender][currentRound] = true;\n    }\n    \n    function pseudoRandom() private view returns (uint) {\n        return uint(keccak256(block.difficulty, now, players));\n    }\n    \n    function pickWinner() public restricted {\n        uint index = pseudoRandom() % players.length;\n        players[index].transfer(this.balance);\n        lastWinner = players[index];\n        players = new address[](0);\n        currentRound ++;\n    }\n    \n    modifier restricted() {\n        require(msg.sender == manager);\n        _;\n    }\n    \n    function getPlayers() public view returns (address[]) {\n        return players;\n    }\n}",
  "sourcePath": "/Users/corndog2/Documents/Code/lottery-react/src/contracts/arbitrum/Lottery.sol",
  "compiler": {
    "name": "solc",
    "version": "0.4.17+commit.bdeb9e52.Emscripten.clang"
  },
  "schemaVersion": "3.2.5",
  "updatedAt": "2021-10-26T14:19:44.007Z",
  "devdoc": {
    "methods": {}
  },
  "userdoc": {
    "methods": {}
  }
}