{
  "contractName": "LotteryV2",
  "abi": [
    {
      "inputs": [
        {
          "internalType": "address",
          "name": "_vrfCoordinator",
          "type": "address"
        },
        {
          "internalType": "address",
          "name": "_linkToken",
          "type": "address"
        },
        {
          "internalType": "bytes32",
          "name": "_keyHash",
          "type": "bytes32"
        },
        {
          "internalType": "uint256",
          "name": "_fee",
          "type": "uint256"
        }
      ],
      "stateMutability": "nonpayable",
      "type": "constructor"
    },
    {
      "anonymous": false,
      "inputs": [
        {
          "indexed": false,
          "internalType": "uint256",
          "name": "round",
          "type": "uint256"
        },
        {
          "indexed": false,
          "internalType": "uint256",
          "name": "amount",
          "type": "uint256"
        },
        {
          "indexed": false,
          "internalType": "address",
          "name": "playersEntered",
          "type": "address"
        },
        {
          "indexed": false,
          "internalType": "address[]",
          "name": "players",
          "type": "address[]"
        }
      ],
      "name": "PlayerEntered",
      "type": "event"
    },
    {
      "anonymous": false,
      "inputs": [
        {
          "indexed": true,
          "internalType": "bytes32",
          "name": "requestId",
          "type": "bytes32"
        },
        {
          "indexed": true,
          "internalType": "uint256",
          "name": "result",
          "type": "uint256"
        }
      ],
      "name": "RandomLanded",
      "type": "event"
    },
    {
      "anonymous": false,
      "inputs": [
        {
          "indexed": false,
          "internalType": "uint256",
          "name": "round",
          "type": "uint256"
        },
        {
          "indexed": false,
          "internalType": "address",
          "name": "winningPlayer",
          "type": "address"
        },
        {
          "indexed": false,
          "internalType": "uint256",
          "name": "winningNumber",
          "type": "uint256"
        }
      ],
      "name": "WinnerPicked",
      "type": "event"
    },
    {
      "inputs": [],
      "name": "currentRound",
      "outputs": [
        {
          "internalType": "uint256",
          "name": "",
          "type": "uint256"
        }
      ],
      "stateMutability": "view",
      "type": "function",
      "constant": true
    },
    {
      "inputs": [],
      "name": "lastWinner",
      "outputs": [
        {
          "internalType": "address",
          "name": "",
          "type": "address"
        }
      ],
      "stateMutability": "view",
      "type": "function",
      "constant": true
    },
    {
      "inputs": [],
      "name": "linkToken",
      "outputs": [
        {
          "internalType": "address",
          "name": "",
          "type": "address"
        }
      ],
      "stateMutability": "view",
      "type": "function",
      "constant": true
    },
    {
      "inputs": [],
      "name": "manager",
      "outputs": [
        {
          "internalType": "address",
          "name": "",
          "type": "address"
        }
      ],
      "stateMutability": "view",
      "type": "function",
      "constant": true
    },
    {
      "inputs": [
        {
          "internalType": "address",
          "name": "",
          "type": "address"
        },
        {
          "internalType": "uint256",
          "name": "",
          "type": "uint256"
        }
      ],
      "name": "playerLotteryHistory",
      "outputs": [
        {
          "internalType": "bool",
          "name": "",
          "type": "bool"
        }
      ],
      "stateMutability": "view",
      "type": "function",
      "constant": true
    },
    {
      "inputs": [
        {
          "internalType": "uint256",
          "name": "",
          "type": "uint256"
        }
      ],
      "name": "players",
      "outputs": [
        {
          "internalType": "address",
          "name": "",
          "type": "address"
        }
      ],
      "stateMutability": "view",
      "type": "function",
      "constant": true
    },
    {
      "inputs": [],
      "name": "randomResult",
      "outputs": [
        {
          "internalType": "uint256",
          "name": "",
          "type": "uint256"
        }
      ],
      "stateMutability": "view",
      "type": "function",
      "constant": true
    },
    {
      "inputs": [
        {
          "internalType": "bytes32",
          "name": "requestId",
          "type": "bytes32"
        },
        {
          "internalType": "uint256",
          "name": "randomness",
          "type": "uint256"
        }
      ],
      "name": "rawFulfillRandomness",
      "outputs": [],
      "stateMutability": "nonpayable",
      "type": "function"
    },
    {
      "inputs": [],
      "name": "reqId",
      "outputs": [
        {
          "internalType": "bytes32",
          "name": "",
          "type": "bytes32"
        }
      ],
      "stateMutability": "view",
      "type": "function",
      "constant": true
    },
    {
      "inputs": [],
      "name": "enter",
      "outputs": [],
      "stateMutability": "payable",
      "type": "function",
      "payable": true
    },
    {
      "inputs": [],
      "name": "pickWinner",
      "outputs": [],
      "stateMutability": "nonpayable",
      "type": "function"
    },
    {
      "inputs": [],
      "name": "getPlayers",
      "outputs": [
        {
          "internalType": "address[]",
          "name": "",
          "type": "address[]"
        }
      ],
      "stateMutability": "view",
      "type": "function",
      "constant": true
    },
    {
      "inputs": [],
      "name": "getRandomNumber",
      "outputs": [
        {
          "internalType": "bytes32",
          "name": "_requestId",
          "type": "bytes32"
        }
      ],
      "stateMutability": "nonpayable",
      "type": "function"
    },
    {
      "inputs": [],
      "name": "withdrawLink",
      "outputs": [],
      "stateMutability": "nonpayable",
      "type": "function"
    }
  ],
  "bytecode": "0x60c060405234801561001057600080fd5b5060405161105338038061105383398101604081905261002f916100a8565b6001600160601b0319606094851b811660a0529383901b909316608052600180546001600160a01b031990811633178255600491909155600791909155600892909255600680549092166001600160a01b039091161790556100eb565b80516001600160a01b03811681146100a357600080fd5b919050565b600080600080608085870312156100be57600080fd5b6100c78561008c565b93506100d56020860161008c565b6040860151606090960151949790965092505050565b60805160601c60a05160601c610f2861012b600039600081816106680152610acd015260008181610513015281816107070152610a9e0152610f286000f3fe6080604052600436106100dd5760003560e01c80638b5b9ccc1161007f578063dbdff2c111610059578063dbdff2c114610248578063e97dcb621461025d578063f71d96cb14610265578063fe1881841461028557600080fd5b80638b5b9ccc146101f15780638dc654a21461021357806394985ddd1461022857600080fd5b806357970e93116100bb57806357970e931461018e5780635d495aea146101ae5780638997ce4e146101c55780638a19c8bc146101db57600080fd5b806342619f66146100e2578063481c6a751461010b5780635000ee1614610143575b600080fd5b3480156100ee57600080fd5b506100f860095481565b6040519081526020015b60405180910390f35b34801561011757600080fd5b5060015461012b906001600160a01b031681565b6040516001600160a01b039091168152602001610102565b34801561014f57600080fd5b5061017e61015e366004610c9d565b600560209081526000928352604080842090915290825290205460ff1681565b6040519015158152602001610102565b34801561019a57600080fd5b5060065461012b906001600160a01b031681565b3480156101ba57600080fd5b506101c36102a5565b005b3480156101d157600080fd5b506100f8600a5481565b3480156101e757600080fd5b506100f860045481565b3480156101fd57600080fd5b50610206610442565b6040516101029190610db7565b34801561021f57600080fd5b506101c36104a4565b34801561023457600080fd5b506101c3610243366004610cf7565b61065d565b34801561025457600080fd5b506100f86106e3565b6101c36107f6565b34801561027157600080fd5b5061012b610280366004610d19565b6109fc565b34801561029157600080fd5b5060035461012b906001600160a01b031681565b6001546001600160a01b031633146103045760405162461bcd60e51b815260206004820181905260248201527f4e6f7420746865206d616e61676572206f66207468697320636f6e747261637460448201526064015b60405180910390fd5b600061030e6106e3565b5060025460095461032b9160019161032591610a26565b90610a43565b90506002818154811061034057610340610edc565b60009182526020822001546040516001600160a01b03909116914780156108fc02929091818181858888f19350505050158015610381573d6000803e3d6000fd5b506002818154811061039557610395610edc565b6000918252602082200154600380546001600160a01b0319166001600160a01b0390921691909117905560048054916103cd83610e89565b909155505060408051600081526020810191829052516103ef91600291610c23565b50600454600354604080519283526001600160a01b03909116602083015281018290527fad586bf2cfefa63512aa5a1106545ee05dc5376edec8841ef54a636f4a036a2d9060600160405180910390a150565b6060600280548060200260200160405190810160405280929190818152602001828054801561049a57602002820191906000526020600020905b81546001600160a01b0316815260019091019060200180831161047c575b5050505050905090565b6001546001600160a01b031633146104fe5760405162461bcd60e51b815260206004820181905260248201527f4e6f7420746865206d616e61676572206f66207468697320636f6e747261637460448201526064016102fb565b6040516370a0823160e01b81523060048201527f00000000000000000000000000000000000000000000000000000000000000006001600160a01b03169063a9059cbb90339083906370a082319060240160206040518083038186803b15801561056757600080fd5b505afa15801561057b573d6000803e3d6000fd5b505050506040513d601f19601f8201168201806040525081019061059f9190610d32565b6040516001600160e01b031960e085901b1681526001600160a01b0390921660048301526024820152604401602060405180830381600087803b1580156105e557600080fd5b505af11580156105f9573d6000803e3d6000fd5b505050506040513d601f19601f8201168201806040525081019061061d9190610cd5565b61065b5760405162461bcd60e51b815260206004820152600f60248201526e4e6f7420656e6f756768204c494e4b60881b60448201526064016102fb565b565b336001600160a01b037f000000000000000000000000000000000000000000000000000000000000000016146106d55760405162461bcd60e51b815260206004820152601f60248201527f4f6e6c7920565246436f6f7264696e61746f722063616e2066756c66696c6c0060448201526064016102fb565b6106df8282610a5f565b5050565b6008546040516370a0823160e01b8152306004820152600091906001600160a01b037f000000000000000000000000000000000000000000000000000000000000000016906370a082319060240160206040518083038186803b15801561074957600080fd5b505afa15801561075d573d6000803e3d6000fd5b505050506040513d601f19601f820116820180604052508101906107819190610d32565b10156107e35760405162461bcd60e51b815260206004820152602b60248201527f4e6f7420656e6f756768204c494e4b202d2066696c6c20636f6e74726163742060448201526a1dda5d1a0819985d58d95d60aa1b60648201526084016102fb565b6107f1600754600854610a9a565b905090565b336000908152600560209081526040808320600454845290915290205460ff161515600114156108745760405162461bcd60e51b8152602060048201526024808201527f4f6e6c7920616c6c6f77656420746f20656e746572206f6e63652070657220726044820152631bdd5b9960e21b60648201526084016102fb565b6001546001600160a01b03163314156108de5760405162461bcd60e51b815260206004820152602660248201527f4d616e61676572206e6f7420616c6c6f77656420696e746f20656e746572206c6044820152656f747465727960d01b60648201526084016102fb565b662386f26fc1000034116109525760405162461bcd60e51b815260206004820152603560248201527f4e6f7420656e6f75676820455448202d20796f75206e656564206d696e756d75604482015274369037b3101817181922aa24103a379032b73a32b960591b60648201526084016102fb565b60028054600181810183557f405787fa12a823e0f2b7631cc41b3ba8828b3321ca811111fa75cd3aa3bb5ace90910180546001600160a01b031916339081179091556000818152600560209081526040808320600480548552925291829020805460ff1916909417909355915491517f25e88e121d3555f7dd2654a6e3fa487257a4c4b6ef0cc436e09535b9a65d12da936109f293923492909190610e04565b60405180910390a1565b60028181548110610a0c57600080fd5b6000918252602090912001546001600160a01b0316905081565b600081610a3257600080fd5b610a3c8284610ea4565b9392505050565b600080610a508385610e71565b905083811015610a3c57600080fd5b6009819055600a829055604051819083907fc16d80ef1952061813fcadcebbdc8b2a9103a11a772dfd377a163ca26a9fa27b90600090a35050565b60007f00000000000000000000000000000000000000000000000000000000000000006001600160a01b0316634000aea07f000000000000000000000000000000000000000000000000000000000000000084866000604051602001610b0a929190918252602082015260400190565b6040516020818303038152906040526040518463ffffffff1660e01b8152600401610b3793929190610d4b565b602060405180830381600087803b158015610b5157600080fd5b505af1158015610b65573d6000803e3d6000fd5b505050506040513d601f19601f82011682018060405250810190610b899190610cd5565b5060008381526020818152604080832054815180840188905280830185905230606082015260808082018390528351808303909101815260a090910190925281519183019190912086845292909152610be3906001610e71565b6000858152602081815260409182902092909255805180830187905280820184905281518082038301815260609091019091528051910120949350505050565b828054828255906000526020600020908101928215610c78579160200282015b82811115610c7857825182546001600160a01b0319166001600160a01b03909116178255602090920191600190910190610c43565b50610c84929150610c88565b5090565b5b80821115610c845760008155600101610c89565b60008060408385031215610cb057600080fd5b82356001600160a01b0381168114610cc757600080fd5b946020939093013593505050565b600060208284031215610ce757600080fd5b81518015158114610a3c57600080fd5b60008060408385031215610d0a57600080fd5b50508035926020909101359150565b600060208284031215610d2b57600080fd5b5035919050565b600060208284031215610d4457600080fd5b5051919050565b60018060a01b038416815260006020848184015260606040840152835180606085015260005b81811015610d8d57858101830151858201608001528201610d71565b81811115610d9f576000608083870101525b50601f01601f19169290920160800195945050505050565b6020808252825182820181905260009190848201906040850190845b81811015610df85783516001600160a01b031683529284019291840191600101610dd3565b50909695505050505050565b6000608082018683526020868185015260018060a01b0380871660408601526080606086015282865480855260a0870191508760005283600020945060005b81811015610e61578554841683526001958601959285019201610e43565b50909a9950505050505050505050565b60008219821115610e8457610e84610ec6565b500190565b6000600019821415610e9d57610e9d610ec6565b5060010190565b600082610ec157634e487b7160e01b600052601260045260246000fd5b500690565b634e487b7160e01b600052601160045260246000fd5b634e487b7160e01b600052603260045260246000fdfea2646970667358221220c97687a2656dbc9e6fae3656f2d084b70f86aa4e2adef810cefe2f275bf4e9c064736f6c63430008070033",
  "immutableReferences": {
    "511": [
      {
        "length": 32,
        "start": 1299
      },
      {
        "length": 32,
        "start": 1799
      },
      {
        "length": 32,
        "start": 2718
      }
    ],
    "513": [
      {
        "length": 32,
        "start": 1640
      },
      {
        "length": 32,
        "start": 2765
      }
    ]
  },
  "source": "pragma solidity 0.8.7;\n\n/**\n * @title SafeMath\n * @dev Unsigned math operations with safety checks that revert on error\n */\nlibrary SafeMath {\n    /**\n    * @dev Multiplies two unsigned integers, reverts on overflow.\n    */\n    function mul(uint256 a, uint256 b) internal pure returns (uint256) {\n        // Gas optimization: this is cheaper than requiring 'a' not being zero, but the\n        // benefit is lost if 'b' is also tested.\n        // See: https://github.com/OpenZeppelin/openzeppelin-solidity/pull/522\n        if (a == 0) {\n            return 0;\n        }\n\n        uint256 c = a * b;\n        require(c / a == b);\n\n        return c;\n    }\n\n    /**\n    * @dev Integer division of two unsigned integers truncating the quotient, reverts on division by zero.\n    */\n    function div(uint256 a, uint256 b) internal pure returns (uint256) {\n        // Solidity only automatically asserts when dividing by 0\n        require(b > 0);\n        uint256 c = a / b;\n        // assert(a == b * c + a % b); // There is no case in which this doesn't hold\n\n        return c;\n    }\n\n    /**\n    * @dev Subtracts two unsigned integers, reverts on overflow (i.e. if subtrahend is greater than minuend).\n    */\n    function sub(uint256 a, uint256 b) internal pure returns (uint256) {\n        require(b <= a);\n        uint256 c = a - b;\n\n        return c;\n    }\n\n    /**\n    * @dev Adds two unsigned integers, reverts on overflow.\n    */\n    function add(uint256 a, uint256 b) internal pure returns (uint256) {\n        uint256 c = a + b;\n        require(c >= a);\n\n        return c;\n    }\n\n    /**\n    * @dev Divides two unsigned integers and returns the remainder (unsigned integer modulo),\n    * reverts when dividing by zero.\n    */\n    function mod(uint256 a, uint256 b) internal pure returns (uint256) {\n        require(b != 0);\n        return a % b;\n    }\n}\n\n// SPDX-License-Identifier: MIT\n// ----------------------------------------------------------------------------\n// \n// Players must submit a minimum ammount of 0.02 ETH to enter into the lottery pool.\n// After all players have entered, the manger address(account that deployed contract) \n// can call the pickWinner() function. The winning will be picked using a Chainlink random number\n// generator and the winning address with receive all ETH in the lottery pool. After the lottery winner is \n// selected the smart contacts state will reset and a new lottery round can start.\n// Enjoy.\n//\n// ---------------------------------------------------------------------------- \n// ----------------------------------------------------------------------------\n// Updated     : To support Solidity version 0.8.7\n// Programmer  : Idris Bowman (www.idrisbowman.com)\n// Link        : https://idrisbowman.com\n// ----------------------------------------------------------------------------\npragma solidity 0.8.7;\n\nimport \"@chainlink/contracts/src/v0.8/VRFConsumerBase.sol\";\n\ncontract LotteryV2 is VRFConsumerBase {\n    using SafeMath for uint;\n\n    address public manager;\n    address[] public players;\n    address public lastWinner;\n    uint256 public currentRound;\n\n    // keep track player entered history for each round\n    mapping(address => mapping(uint256 => bool)) public playerLotteryHistory;\n    \n    // random number vars\n    address public linkToken;\n    bytes32 internal keyHash;\n    uint256 internal fee;\n    uint256 public randomResult;\n    bytes32 public reqId;\n\n    // Events\n    event PlayerEntered(\n        uint256 round,\n        uint256 amount,\n        address playersEntered,\n        address[] players\n    );\n    event WinnerPicked(uint256 round, address winningPlayer, uint256 winningNumber);\n    event RandomLanded(bytes32 indexed requestId, uint256 indexed result);\n\n    /**\n     * @notice Constructor inherits VRFConsumerBase\n     * \n     * @dev network: Kovan\n     * @dev  Chainlink VRF Coordinator address: 0xdD3782915140c8f3b190B5D67eAc6dc5760C46E9\n     * @dev  LINK token address:                0xa36085F69e2889c224210F603D836748e7dC0088\n     * @dev  Key Hash: 0x6c3699283bda56ad74f6b855546325b68d482e983852a7a82979cc4807b641f4\n     * @dev   Fee:        0.1 LINK (100000000000000000)\n     * \n     * @param _vrfCoordinator address of the VRF Coordinator\n     * @param _linkToken address of the LINK token\n     * @param _keyHash bytes32 representing the hash of the VRF job\n     * @param _fee uint256 fee to pay the VRF oracle\n     */\n    constructor(address _vrfCoordinator, address _linkToken, bytes32 _keyHash, uint256 _fee)\n     VRFConsumerBase(\n            _vrfCoordinator, // VRF Coordinator\n            _linkToken  // LINK Token\n        )\n    {\n        manager = msg.sender;\n        currentRound = 1;\n        keyHash = _keyHash;\n        fee = _fee;\n        linkToken = _linkToken; \n    }\n    \n    function enter() external payable {\n        require(playerLotteryHistory[msg.sender][currentRound] != true, \"Only allowed to enter once per round\");\n        require(msg.sender != manager,  \"Manager not allowed into enter lottery\");\n        require(msg.value > .01 ether, \"Not enough ETH - you need minumum of 0.02ETH to enter\");\n        players.push(msg.sender);\n        playerLotteryHistory[msg.sender][currentRound] = true;\n        emit PlayerEntered(currentRound, msg.value, msg.sender, players);\n    }\n    \n    function pickWinner() external restricted  {\n        uint256 _winningIndex;\n        getRandomNumber();\n        _winningIndex =  randomResult.mod(players.length).add(1);\n        \n        payable(players[_winningIndex]).transfer(address(this).balance);\n        lastWinner = players[_winningIndex];\n        currentRound ++;\n        players = new address[](0);\n        emit WinnerPicked(currentRound,lastWinner, _winningIndex);\n    }\n    \n    modifier restricted() {\n        require(msg.sender == manager, \"Not the manager of this contract\");\n        _;\n    }\n    \n    function getPlayers() external view returns (address[] memory) {\n        return players;\n    }\n    \n    /** \n     * Requests randomness \n     */\n    function getRandomNumber() public returns (bytes32 _requestId) {\n        require(LINK.balanceOf(address(this)) >= fee, \"Not enough LINK - fill contract with faucet\");\n        return requestRandomness(keyHash, fee);\n    }\n\n     /**\n     * @notice Callback function used by VRF Coordinator to return the random number\n     * to this contract.\n     * @param requestId bytes32\n     * @param randomness The random result returned by the oracle\n    */\n    function fulfillRandomness(bytes32 requestId, uint256 randomness) internal override {\n        randomResult = randomness;\n        reqId = requestId;\n        emit RandomLanded(requestId, randomResult);\n    }\n    \n    function withdrawLink() external restricted {\n        require(LINK.transfer(msg.sender, LINK.balanceOf(address(this))), \"Not enough LINK\");\n    }\n}",
  "sourcePath": "/Users/corndog2/Documents/Code/lottery-react/src/contracts/ethereum/LotteryV2.sol",
  "compiler": {
    "name": "solc",
    "version": "0.8.7+commit.e28d00a7.Emscripten.clang"
  },
  "schemaVersion": "3.2.5",
  "updatedAt": "2021-11-13T14:29:33.927Z",
  "networkType": "ethereum",
  "devdoc": {
    "kind": "dev",
    "methods": {
      "constructor": {
        "details": "network: KovanChainlink VRF Coordinator address: 0xdD3782915140c8f3b190B5D67eAc6dc5760C46E9LINK token address:                0xa36085F69e2889c224210F603D836748e7dC0088Key Hash: 0x6c3699283bda56ad74f6b855546325b68d482e983852a7a82979cc4807b641f4Fee:        0.1 LINK (100000000000000000) ",
        "params": {
          "_fee": "uint256 fee to pay the VRF oracle",
          "_keyHash": "bytes32 representing the hash of the VRF job",
          "_linkToken": "address of the LINK token",
          "_vrfCoordinator": "address of the VRF Coordinator"
        }
      }
    },
    "version": 1
  },
  "userdoc": {
    "kind": "user",
    "methods": {
      "constructor": {
        "notice": "Constructor inherits VRFConsumerBase "
      },
      "getRandomNumber()": {
        "notice": "Requests randomness "
      }
    },
    "version": 1
  }
}