{
  "contractName": "Lottery",
  "abi": [
    {
      "constant": true,
      "inputs": [],
      "name": "manager",
      "outputs": [
        {
          "name": "",
          "type": "address"
        }
      ],
      "payable": false,
      "stateMutability": "view",
      "type": "function"
    },
    {
      "constant": true,
      "inputs": [
        {
          "name": "",
          "type": "address"
        },
        {
          "name": "",
          "type": "uint256"
        }
      ],
      "name": "activeInLottery",
      "outputs": [
        {
          "name": "",
          "type": "bool"
        }
      ],
      "payable": false,
      "stateMutability": "view",
      "type": "function"
    },
    {
      "constant": true,
      "inputs": [],
      "name": "currentRound",
      "outputs": [
        {
          "name": "",
          "type": "uint256"
        }
      ],
      "payable": false,
      "stateMutability": "view",
      "type": "function"
    },
    {
      "constant": true,
      "inputs": [
        {
          "name": "",
          "type": "uint256"
        }
      ],
      "name": "players",
      "outputs": [
        {
          "name": "",
          "type": "address"
        }
      ],
      "payable": false,
      "stateMutability": "view",
      "type": "function"
    },
    {
      "constant": true,
      "inputs": [],
      "name": "lastWinner",
      "outputs": [
        {
          "name": "",
          "type": "address"
        }
      ],
      "payable": false,
      "stateMutability": "view",
      "type": "function"
    },
    {
      "inputs": [],
      "payable": false,
      "stateMutability": "nonpayable",
      "type": "constructor"
    },
    {
      "constant": false,
      "inputs": [],
      "name": "enter",
      "outputs": [],
      "payable": true,
      "stateMutability": "payable",
      "type": "function"
    },
    {
      "constant": false,
      "inputs": [],
      "name": "pickWinner",
      "outputs": [],
      "payable": false,
      "stateMutability": "nonpayable",
      "type": "function"
    },
    {
      "constant": true,
      "inputs": [],
      "name": "getPlayers",
      "outputs": [
        {
          "name": "",
          "type": "address[]"
        }
      ],
      "payable": false,
      "stateMutability": "view",
      "type": "function"
    }
  ],
  "bytecode": "0x6060604052341561000f57600080fd5b60008054600160a060020a033316600160a060020a031990911617905560016003556105fd806100406000396000f3006060604052361561008b5763ffffffff7c0100000000000000000000000000000000000000000000000000000000600035041663481c6a7581146100905780635d495aea146100bf5780637ec6dec1146100d45780638a19c8bc1461010a5780638b5b9ccc1461012f578063e97dcb6214610195578063f71d96cb1461019d578063fe188184146101b3575b600080fd5b341561009b57600080fd5b6100a36101c6565b604051600160a060020a03909116815260200160405180910390f35b34156100ca57600080fd5b6100d26101d5565b005b34156100df57600080fd5b6100f6600160a060020a03600435166024356102dc565b604051901515815260200160405180910390f35b341561011557600080fd5b61011d6102fc565b60405190815260200160405180910390f35b341561013a57600080fd5b610142610302565b60405160208082528190810183818151815260200191508051906020019060200280838360005b83811015610181578082015183820152602001610169565b505050509050019250505060405180910390f35b6100d261036b565b34156101a857600080fd5b6100a360043561043d565b34156101be57600080fd5b6100a3610465565b600054600160a060020a031681565b6000805433600160a060020a039081169116146101f157600080fd5b6001546101fc610474565b81151561020557fe5b06905060018181548110151561021757fe5b600091825260209091200154600160a060020a039081169030163180156108fc0290604051600060405180830381858888f19350505050151561025957600080fd5b600180548290811061026757fe5b60009182526020822001546002805473ffffffffffffffffffffffffffffffffffffffff1916600160a060020a039092169190911790556040518059106102ab5750595b908082528060200260200182016040525060019080516102cf9291602001906104d7565b5050600380546001019055565b600460209081526000928352604080842090915290825290205460ff1681565b60035481565b61030a61054b565b600180548060200260200160405190810160405280929190818152602001828054801561036057602002820191906000526020600020905b8154600160a060020a03168152600190910190602001808311610342575b505050505090505b90565b600160a060020a0333166000908152600460209081526040808320600354845290915290205460ff161515600114156103a357600080fd5b60005433600160a060020a03908116911614156103bf57600080fd5b662386f26fc1000034116103d257600080fd5b600180548082016103e3838261055d565b506000918252602080832091909101805473ffffffffffffffffffffffffffffffffffffffff191633600160a060020a0316908117909155825260048152604080832060035484529091529020805460ff19166001179055565b600180548290811061044b57fe5b600091825260209091200154600160a060020a0316905081565b600254600160a060020a031681565b6000444260016040518084815260200183815260200182805480156104c257602002820191906000526020600020905b8154600160a060020a031681526001909101906020018083116104a4575b50509350505050604051908190039020905090565b82805482825590600052602060002090810192821561053b579160200282015b8281111561053b578251825473ffffffffffffffffffffffffffffffffffffffff1916600160a060020a0391909116178255602092909201916001909101906104f7565b50610547929150610586565b5090565b60206040519081016040526000815290565b815481835581811511610581576000838152602090206105819181019083016105b7565b505050565b61036891905b8082111561054757805473ffffffffffffffffffffffffffffffffffffffff1916815560010161058c565b61036891905b8082111561054757600081556001016105bd5600a165627a7a72305820f07996f0e5ba74ec01528a40ca4232d7b293ed72c554d35ee77c259caa2226c20029",
  "source": "pragma solidity 0.4.17;\n\ncontract Lottery {\n    address public manager;\n    address[] public players;\n    address public lastWinner;\n    uint256 public currentRound;\n    mapping(address => mapping(uint256 => bool)) public activeInLottery;\n\n    function Lottery() public {\n        manager = msg.sender;\n        currentRound = 1;\n    }\n    \n    function enter() public  payable {\n        // user can only enter once per round\n        require(activeInLottery[msg.sender][currentRound] != true);\n\n        // manage can not enter\n        require(msg.sender != manager);\n\n        // .01 ether = 1000000000000000000 wei\n        require(msg.value > .01 ether);\n        players.push(msg.sender);\n        activeInLottery[msg.sender][currentRound] = true;\n    }\n    \n    function pseudoRandom() private view returns (uint) {\n        return uint(keccak256(block.difficulty, now, players));\n    }\n    \n    function pickWinner() public restricted {\n        uint index = pseudoRandom() % players.length;\n        players[index].transfer(this.balance);\n        lastWinner = players[index];\n        players = new address[](0);\n        currentRound ++;\n    }\n    \n    modifier restricted() {\n        require(msg.sender == manager);\n        _;\n    }\n    \n    function getPlayers() public view returns (address[]) {\n        return players;\n    }\n}",
  "sourcePath": "/Users/corndog2/Documents/Code/lottery-react/src/contracts/ethereum/Lottery.sol",
  "compiler": {
    "name": "solc",
    "version": "0.4.17+commit.bdeb9e52.Emscripten.clang"
  },
  "schemaVersion": "3.2.5",
  "updatedAt": "2021-10-26T13:27:17.252Z",
  "networkType": "ethereum",
  "devdoc": {
    "methods": {}
  },
  "userdoc": {
    "methods": {}
  }
}